:020000040800F2
:1000000000100020F10E0008B90E0008BF0E000815
:1000100000000000000000000000000000000000E0
:10002000000000000000000000000000C50E0008F5
:100030000000000000000000CF0E0008D90E0008EC
:10004000410F0008410F0008410F0008410F000850
:10005000410F0008410F0008410F0008410F000840
:1000600000000000410F0008410F0008410F000888
:10007000410F0008410F0008410F0008410F000820
:10008000410F00080000000000000000410F0008C0
:1000900000000000410F0008410F0008410F000858
:1000A00000000000410F000800000000410F0008A0
:1000B0000000000000000000000000000000000040
:1000C00010B5064C2378002B07D1054B002B02D02E
:1000D000044800E000BF0123237010BD1000002081
:1000E00000000000402F0008044B10B5002B03D087
:1000F0000349044800E000BF10BDC04600000000F6
:1001000014000020402F0008002243088B4274D3C3
:1001100003098B425FD3030A8B4244D3030B8B4208
:1001200028D3030C8B420DD3FF22090212BA030C11
:100130008B4202D31212090265D0030B8B4219D3F2
:1001400000E0090AC30B8B4201D3CB03C01A524112
:10015000830B8B4201D38B03C01A5241430B8B425A
:1001600001D34B03C01A5241030B8B4201D30B0343
:10017000C01A5241C30A8B4201D3CB02C01A52416A
:10018000830A8B4201D38B02C01A5241430A8B422D
:1001900001D34B02C01A5241030A8B4201D30B0216
:1001A000C01A5241CDD2C3098B4201D3CB01C01A30
:1001B000524183098B4201D38B01C01A524143093A
:1001C0008B4201D34B01C01A524103098B4201D328
:1001D0000B01C01A5241C3088B4201D3CB00C01A95
:1001E000524183088B4201D38B00C01A524143080D
:1001F0008B4201D34B00C01A5241411A00D2014632
:10020000524110467047FFE701B5002000F006F8A4
:1002100002BDC0460029F7D076E770477047C04658
:1002200080B582B000AF78607B68002B11DB7B6803
:10023000642B0EDC7B68002B02D07B68642B03D11F
:10024000084B7A685A6308E07B685A1E054B5A636C
:1002500003E0044B00225A63C046C046BD4602B0CC
:1002600080BDC0460020004080B584B000AF0200D1
:100270003960FB1D1A70FB1D1B78032B29D041DC54
:10028000022B0DD03EDC002B02D0012B04D039E034
:10029000204B00225A6339E01E4B7D225A6335E021
:1002A0000023FB6010E01B4B7D225A63FA23DB0026
:1002B000180000F0ABFE174B00225A630A2000F032
:1002C000A5FEFB680133FB60FA683B689A42EADBF3
:1002D0001CE00023BB6010E00E4B7D225A63962386
:1002E0005B00180000F092FE0A4B00225A63642063
:1002F00000F08CFEBB680133BB60BA683B689A4271
:10030000EADB03E0034B00225A63C046C046BD4609
:1003100004B080BD0004004080B582B000AF020090
:10032000FB1D1A70FB1D1B78072B34D89A001F4B3E
:10033000D3181B689F4601220121012000F038F8E4
:100340002FE001220121002000F032F829E00122F3
:100350000021012000F02CF823E0002201210120DF
:1003600000F026F81DE001220021002000F020F816
:1003700017E000220121002000F01AF811E000220D
:100380000021012000F014F80BE0002200210020E1
:1003900000F00EF805E001220121012000F008F82C
:1003A000C046C046BD4602B080BDC046782F00089A
:1003B00090B583B000AF040008001100FB1D221CA3
:1003C0001A70BB1D021C1A707B1D0A1C1A70FB1DC3
:1003D0001A78802399009023DB05180001F0C1FAF8
:1003E000BB1D1A78802359009023DB05180001F00B
:1003F000B8FA7B1D1A788023D9009023DB051800FA
:1004000001F0AFFAC046BD4603B090BD80B582B0E2
:1004100000AF0200FB1D1A70FB1D1A789023DB054C
:100420004021180001F09DFAC046BD4602B080BDD3
:1004300080B500AF9023DB0500222021180001F0D9
:1004400090FA9023DB0500224021180001F089FA80
:10045000234B00220221180001F083FA214B0021D6
:10046000180001F08FFF204B0021180001F08AFFD7
:100470000020FFF7D5FE00210020FFF7F5FE012048
:10048000FFF74AFFFA2000F0C1FD0220FFF744FF0A
:10049000FA2000F0BBFD0320FFF73EFFFA2000F03A
:1004A000B5FD0420FFF738FFFA2000F0AFFD05206E
:1004B000FFF732FFFA2000F0A9FD0620FFF72CFF1E
:1004C000FA2000F0A3FD0720FFF726FFFA2000F036
:1004D0009DFD0020FFF720FFC046BD4680BDC04601
:1004E000001400486C000020B400002080B586B0E5
:1004F00000AFF860B9607A6000237B61234B012173
:10050000180001F011FA031E0DD105E07B690133DB
:100510007B61642000F07AFD1C4B0121180001F082
:1005200003FA031EF2D07B690E2B0BDDFB681B6800
:10053000002B03D1FB6801221A6016E0FB68002241
:100540001A6012E07B69132B0FDC7B69002B0CDD3A
:10055000FB681B68032B03DDFB6802221A6004E0C2
:10056000FB681B685A1CFB681A607B681A68FB688A
:100570001B689A4206D0BB6801221A70FB681A6891
:100580007B681A60C046BD4606B080BD00140048B6
:1005900080B582B000AF786039607B681B68042B3F
:1005A00000D98FE09A00494BD3181B689F46002062
:1005B000FFF7B2FE0020FFF729FF9023DB050022A2
:1005C0002021180001F0CDF90020FFF729FE3B683B
:1005D0001B78002B6FD001210220FFF745FE3B68FE
:1005E00000221A7067E00220FFF796FE3B681B7836
:1005F000002B06D001210220FFF736FE3B680022C7
:100600001A707B681B685A1C7B681A605AE00220CB
:10061000FFF782FE0120FFF7F9FE9023DB050122A0
:100620002021180001F09DF93220FFF7F9FD3B6809
:100630001B78002B41D001210320FFF715FE3B68FA
:1006400000221A7039E00220FFF766FE0120FFF752
:10065000DDFE9023DB0501222021180001F081F945
:100660005020FFF7DDFD3B681B78002B27D00221CF
:100670000320FFF7F9FD3B6800221A701FE00220FB
:10068000FFF74AFE0120FFF7C1FE9023DB050122A0
:100690002021180001F065F96420FFF7C1FD3B68D7
:1006A0001B78002B0DD003210320FFF7DDFD3B68F5
:1006B00000221A7005E0C04604E0C04602E0C046D1
:1006C00000E0C046C046BD4602B080BD982F00087D
:1006D00080B584B000AF7860214B0121180001F093
:1006E00023F90300FB607B68002B29DDFB68002BEE
:1006F0000FD1FB68002BFCD01A4B1B780133DAB208
:10070000184B1A70174B1B78012B02D9154B00227E
:100710001A70144B1B78002B02D0012B08D01AE062
:100720009023DB0501222021180001F01AF912E0C4
:100730009023DB0500222021180001F012F90AE0C5
:10074000084B01221A709023DB050022202118009B
:1007500001F007F9FFE7C046BD4604B080BDC046C2
:1007600000040048FC00002080B500AF184B802139
:10077000180001F0D9F803001A00164B1A709023E4
:10078000DB050121180001F0CFF803001A00124B1D
:100790001A70104B1B78012B11D10F4B1B78002BBB
:1007A00006D10E4B01220221180001F0DAF80CE00C
:1007B0000A4B00220221180001F0D3F805E0074B94
:1007C00000220221180001F0CCF8C046BD4680BDD1
:1007D00000040048FD000020000000200014004834
:1007E000B0B584B000AF0023FB600B23FB180022E0
:1007F0001A7000237B6000F0A5FB00F025F800F0E4
:1008000091F900F0C3F800F03FF900F063F8FFF74A
:100810000FFE322000F0FAFBFFF7A6FF3A1D0B2473
:1008200039190C257B191800FFF760FE3A197B195E
:1008300011001800FFF7ACFEFB681800FFF748FF37
:100840000120FFF7E3FDE7E790B591B000AF10247A
:100850003B19180030231A00002102F069FB3B000D
:10086000180010231A00002102F062FB21007B18FF
:1008700012221A607B180122DA607B1801225A6169
:100880007B1810221A617B1810229A617B180022B3
:100890001A627B18180001F081F8031E01D000F0E5
:1008A000FBF93B0007221A603B0000225A603B0024
:1008B00000229A603B000022DA603B000021180011
:1008C00001F086FB031E01D000F0E6F9C046BD46EC
:1008D00011B090BD80B584B000AF3B1D18000C2353
:1008E0001A00002102F024FB264B274A1A60254BF0
:1008F00000225A60234B00229A60224B0022DA60C9
:10090000204B01221A611F4B04225A611D4B002209
:100910001A761C4B00225A761A4B00229A76194BF3
:100920000022DA76174BC222FF32DA61154B002221
:100930001A62144B242200219954124B01229A620C
:10094000104B180000F086FB031E01D000F0A4F944
:100950003B1D07221A603B1D802252015A603B1D3D
:10096000802252059A603A1D064B1100180000F0D3
:10097000B1FC031E01D000F08FF9C046BD4604B0A3
:1009800080BDC0462C0000200024014080B58EB000
:1009900000AF2823FB18180010231A00002102F0D2
:1009A000C7FA2023FB18180008231A00002102F0C0
:1009B000BFFA3B1D18001C231A00002102F0B8FAF0
:1009C0002F4B304A1A602E4B09225A602C4B0022C2
:1009D0009A602B4BFB22DA60294B00221A61284BCC
:1009E00000229A61264B180001F024FC031E01D05E
:1009F00000F052F928217B18802252011A607A18DF
:100A00001F4B1100180001F02FFE031E01D000F053
:100A100043F91B4B180001F05DFC031E01D000F0F0
:100A20003BF920217B1800221A607B1800225A60B3
:100A30007A18134B1100180002F0FEF9031E01D0C2
:100A400000F02AF93B1D60221A603B1D7D225A608E
:100A50003B1D00229A603B1D00221A61391D084B84
:100A60000022180001F03AFD031E01D000F014F935
:100A7000034B180000F0B4F9C046BD460EB080BD6F
:100A80006C0000200004004080B588B000AF3B1D22
:100A900018001C231A00002102F04AFA1F4B204ABA
:100AA0001A601E4B03225A601C4B00229A601B4B9B
:100AB0006322DA60194B00221A61184B00229A61F6
:100AC000164B180001F0B6FB031E01D000F0E4F84D
:100AD000124B180001F0FEFB031E01D000F0DCF801
:100AE0003B1D60221A603B1D00225A603B1D002204
:100AF0009A603B1D00221A61391D084B0022180024
:100B000001F0ECFC031E01D000F0C6F8034B180006
:100B100000F066F9C046BD4608B080BDB4000020B4
:100B20000020004090B589B000AF0C243B1918009C
:100B300014231A00002102F0FBF9544B5A69534B5D
:100B40008021C9030A435A61504B5A698023DB0351
:100B50001340BB60BB684D4B5A694C4B80218902E6
:100B60000A435A61494B5A6980239B0213407B60B8
:100B70007B68464B5A69454B8021C9020A435A613A
:100B8000424B5A698023DB0213403B603B68404B79
:100B900000220221180000F0E4FE9023DB05012270
:100BA0002021180000F0DDFEE823D9009023DB05AA
:100BB0000022180000F0D5FE3B1901221A603B19F3
:100BC00000225A603B1900229A603B19304A1900F2
:100BD000100000F041FD3B1902221A603B1901226E
:100BE0005A603B1900229A603B190022DA603B19D7
:100BF000274A1900100000F02FFD3B1901221A604E
:100C00003B1900225A603B1901229A603A1990233D
:100C1000DB051100180000F01FFD21007B18EC22FD
:100C2000D2001A600C003B1901225A603B190022C5
:100C30009A603B190022DA603A199023DB05110013
:100C4000180000F009FD3B1901221A603B1900222F
:100C50005A603B1901229A603B190E4A1900100094
:100C600000F0FAFC21007B1880221A607B18002219
:100C70005A607B1800229A607B18064A19001000FF
:100C800000F0EAFCC046BD4609B090BD001002402D
:100C9000001400480004004880B500AF72B6C0469A
:100CA000FEE7000080B582B000AF0F4B9A690E4B93
:100CB00001210A439A610C4B9B69012213407B601E
:100CC0007B68094BDA69084B802149050A43DA61E0
:100CD000054BDA6980235B0513403B603B68C046E7
:100CE000BD4602B080BDC0460010024090B58BB03A
:100CF00000AF786014243B19180014231A00002157
:100D000002F016F97B681B68194A93422BD1194BE4
:100D10009A69184B802189000A439A61154B9A6998
:100D200080239B0013403B613B69124B5A69114B76
:100D3000802189020A435A610E4B5A6980239B0223
:100D40001340FB60FB683B1980221A603B190322A9
:100D50005A603B1900229A603A199023DB05110072
:100D6000180000F079FCC046BD460BB090BDC046EF
:100D7000002401400010024080B584B000AF7860CC
:100D80007B681B68134A93420CD1134BDA69124BF0
:100D900002210A43DA61104BDB6902221340FB6037
:100DA000FB6812E07B681B680C4A93420DD10A4B2A
:100DB000DA69094B802149000A43DA61064BDA6996
:100DC00080235B001340BB60BB68C046BD4604B0D7
:100DD00080BDC046000400400010024000200040DA
:100DE00090B58BB000AF786014243B191800142321
:100DF0001A00002102F09CF87B681B682A4A934283
:100E000024D12A4B5A69294B8021C9020A435A61CD
:100E1000264B5A698023DB0213403B613B6921006A
:100E20007B1810221A607B1802225A607B1800225D
:100E30009A607B180022DA607B1801221A617B1805
:100E40001B4A1900100000F007FC28E07B681B68B3
:100E5000184A934223D1154B5A69144B8021C90279
:100E60000A435A61114B5A698023DB021340FB602D
:100E7000FB6814217B1802221A607B1802225A6038
:100E80007B1800229A607B180022DA607B1800220F
:100E90001A617B18064A1900100000F0DDFBC046FD
:100EA000BD460BB090BDC04600040040001002409B
:100EB000000400480020004080B500AFFEE780B588
:100EC00000AFFEE780B500AFC046BD4680BD80B52F
:100ED00000AFC046BD4680BD80B500AF00F07AF8D7
:100EE000C046BD4680BD80B500AFC046BD4680BD92
:100EF0000D4885460D480E490E4A002302E0D4589D
:100F0000C4500433C4188C42F9D30B4A0B4C002351
:100F100001E013600432A242FBD3FFF7E4FF01F0CB
:100F2000E3FFFFF75DFCFEE700100020000000205B
:100F300010000020C42F0008100000200401002031
:100F4000FEE7000080B500AF074B1A68064B102182
:100F50000A431A60032000F009F8FFF7A3FE0023FC
:100F60001800BD4680BDC0460020024090B583B049
:100F700000AF7860144B1C68144B1B781900FA23DF
:100F80009800FFF7C1F8030019002000FFF7BCF834
:100F90000300180000F053FB031E01D001230FE0F3
:100FA0007B68032B0BD8796801235B420022180071
:100FB00000F030FB064B7A681A60002300E0012342
:100FC0001800BD4603B090BD040000200C000020B6
:100FD0000800002080B500AF054B1B781A00054BB8
:100FE0001B68D218034B1A60C046BD4680BDC04680
:100FF0000C0000200001002080B500AF024B1B68F0
:101000001800BD4680BDC0460001002080B584B0F8
:1010100000AF7860FFF7F0FF0300BB607B68FB6008
:10102000FB68013305D00A4B1B781A00FB689B183C
:10103000FB60C046FFF7E0FF0200BB68D31AFA6806
:101040009A42F7D8C046C046BD4604B080BDC046EF
:101050000C00002080B584B000AF78600F23FB182F
:1010600000221A700023BB607B68002B01D1012392
:1010700025E17B689B6B002B0AD17B680022DA6339
:101080007B683422002199547B681800FFF72EFEFC
:101090007B689B6B1022134000D003E10F23FB18E9
:1010A0001B78002B00D0FDE07B681B689B68042246
:1010B000134000D0F6E07B689B6B834A134002220A
:1010C0001A437B689A637B681B689B680322134002
:1010D000012B12D17B681B681B6801221340012B76
:1010E00009D07B681B68DA6880231B021A408023C2
:1010F0001B029A4201D1012300E00023002B16D1EC
:101100007B681B68DB681822934319007B689A6828
:101110007B681B680A43DA607B681B681B699B005D
:1011200099087B685A687B681B680A431A617B6868
:101130001B68DA687B681B6864490A40DA607B6870
:101140001B7E9A037B685B7EDB031A437B689B7E76
:101150005B031A437B689B6A012B02D080235B01EF
:1011600000E000231A437B68DB681A437B681B6935
:10117000022B01D1042300E000231A437B682421C1
:101180005B5C5B001343BA681343BB607B68DB7E28
:10119000012B15D17B689B7E002B05D1BB6880227B
:1011A00052021343BB600BE07B689B6B20221A4307
:1011B0007B689A637B68DB6B01221A437B68DA6386
:1011C0007B68DA69C223FF339A4207D07B68DA6909
:1011D0007B681B6A1343BA681343BB607B681B6858
:1011E000D9687B681B68BA680A43DA607B68DA6A88
:1011F00080235B059A421BD07B68DB6A012B17D0EA
:101200007B68DB6A022B13D07B68DB6A032B0FD071
:101210007B68DB6A042B0BD07B68DB6A052B07D06D
:101220007B68DB6A062B03D07B68DB6A072B12D155
:101230007B681B685A697B681B6807218A435A616F
:101240007B681B6859697B68DB6A07221A407B68E8
:101250001B680A435A617B681B68DB681C4A1340A1
:10126000BA689A420BD17B680022DA637B689B6B79
:101270000322934301221A437B689A631CE07B6834
:101280009B6B1222934310221A437B689A637B68FC
:10129000DB6B01221A437B68DA630F23FB18012200
:1012A0001A7009E07B689B6B10221A437B689A6373
:1012B0000F23FB1801221A700F23FB181B7818004C
:1012C000BD4604B080BDC046FDFEFFFF1902FEFF13
:1012D000E7FF3F8380B584B000AF786039600F23AB
:1012E000FB1800221A700023BB607B68DA6A802337
:1012F0005B059A4211D07B68DB6A012B0DD07B68BD
:10130000DB6A022B09D07B68DB6A032B05D07B6884
:10131000DB6A042B01D07B68DB6A7B6834229B5C30
:10132000012B01D10223D0E07B68342201219954A2
:101330007B681B689B680422134000D0B4E03B68C4
:101340005B68644A934200D182E07B681B68996ABB
:101350003B681B6801229A407B681B680A439A62BB
:101360007B68DA6A80235B059A4237D07B68DB6A48
:10137000012B33D07B68DB6A022B2FD07B68DB6AC2
:10138000032B2BD07B68DB6A042B27D07B68DB6ABE
:10139000052B23D07B68DB6A062B1FD07B68DB6ABA
:1013A000072B1BD03B689A687B681B685B69072129
:1013B0000B409A4212D07B681B685A697B681B6895
:1013C00007218A435A617B681B6859693B689B689F
:1013D00007221A407B681B680A435A613B681B68F6
:1013E000102B07D03B681B68112B03D03B681B6890
:1013F000122B63D1384B19683B681B68102B09D03E
:101400003B681B68112B02D18023DB0304E080239F
:101410005B0401E080231B042F4A0B4313603B68ED
:101420001B68102B4AD12D4B1B682D491800FEF765
:101430006BFE03001A0013009B009B185B00BB604F
:1014400002E0BB68013BBB60BB68002BF9D135E013
:101450007B681B689A6A3B681B68012199400B00F6
:10146000D9437B681B680A409A623B681B68102B53
:1014700007D03B681B68112B03D03B681B68122BFD
:101480001CD1154B19683B681B68102B07D03B68B3
:101490001B68112B01D1134B02E0134B00E0134BDF
:1014A0000D4A0B40136009E07B689B6B20221A43B6
:1014B0007B689A630F23FB1801221A707B68342221
:1014C000002199540F23FB181B781800BD4604B067
:1014D00080BDC04601100000082701400400002024
:1014E00040420F00FFFFBFFFFFFFFFFEFFFF7FFF38
:1014F00090B583B000AF02003960FB1D1A70FB1D70
:101500001B787F2B28D82F4AFB1D1B785BB29B08CA
:10151000C0339B009B58FA1D1278110003220A4029
:10152000D200FF2191400A00D2431A4011003B68CB
:101530009B01FF221A40FB1D1B7818000323034068
:10154000DB009A401F48FB1D1B785BB29B080A43D7
:10155000C0339B001A5031E01B4AFB1D1B78190059
:101560000F230B40083B9B0806339B00D318043322
:101570001B68FA1D1278110003220A40D200FF21D5
:1015800091400A00D2431A4011003B689B01FF22A0
:101590001A40FB1D1B78180003230340DB009A4010
:1015A0000948FB1D1B781C000F232340083B9B08A8
:1015B0000A4306339B00C31804331A60C046BD4675
:1015C00003B090BD00E100E000ED00E080B582B026
:1015D00000AF78607B685A1E80235B049A4201D377
:1015E000012310E00A4B7A68013A5A6001235B42FA
:1015F00003211800FFF77CFF054B00229A60044B83
:1016000007221A6000231800BD4602B080BDC04604
:1016100010E000E080B584B000AFB9607A600F21BF
:101620007B18021C1A70BA687B181B785BB2110019
:101630001800FFF75DFFC046BD4604B080BD80B511
:1016400082B000AF78607B681800FFF7BFFF03002F
:101650001800BD4602B080BD80B586B000AF78608E
:10166000396000237B6149E13B681B6801217A698D
:1016700091400A001340FB60FB68002B00D13AE167
:101680003B685B6803221340012B05D03B685B6815
:1016900003221340022B30D17B689B683B617B693E
:1016A0005B0003229A401300DA433B6913403B611D
:1016B0003B68DA687B695B009A4013003A69134320
:1016C0003B617B683A699A607B685B683B61012299
:1016D0007B699A401300DA433B6913403B613B68E6
:1016E0005B681B0901221A407B699A4013003A6922
:1016F00013433B617B683A695A603B685B6803222D
:101700001340032B17D07B68DB683B617B695B0070
:1017100003229A401300DA433B6913403B613B6864
:101720009A687B695B009A4013003A6913433B61F6
:101730007B683A69DA603B685B6803221340022BDE
:1017400023D17B69DA087B6808329200D3583B6169
:101750007B69072213409B000F229A401300DA4353
:101760003B6913403B613B681A697B6907210B4069
:101770009B009A4013003A6913433B617B69DA0886
:101780007B68083292003969D1507B681B683B61E5
:101790007B695B0003229A401300DA433B691340E4
:1017A0003B613B685B6803221A407B695B009A409F
:1017B00013003A6913433B617B683A691A603B68DE
:1017C0005A68C0239B02134000D194E0514B9A69A0
:1017D000504B01210A439A614E4B9B6901221340F1
:1017E000BB60BB684C4A7B699B0802339B009B58DB
:1017F0003B617B69032213409B000F229A40130038
:10180000DA433B6913403B617A689023DB059A42D7
:101810000DD07B68414A934207D07B68404A93428F
:1018200001D1022304E0052302E0012300E00023AC
:101830007A6903210A40920093403A6913433B615D
:1018400035497B699B0802339B003A695A50354BF6
:101850001B683B61FB68DA433B6913403B613B68B3
:101860005A6880235B02134003D03A69FB68134334
:101870003B612C4B3A691A602A4B5B683B61FB6801
:10188000DA433B6913403B613B685A6880239B0203
:10189000134003D03A69FB6813433B61214B3A691B
:1018A0005A60204B9B683B61FB68DA433B691340FD
:1018B0003B613B685A6880235B03134003D03A695D
:1018C000FB6813433B61174B3A699A60154BDB6821
:1018D0003B61FB68DA433B6913403B613B685A68F4
:1018E00080239B03134003D03A69FB6813433B6199
:1018F0000C4B3A69DA607B6901337B613B681A689B
:101900007B69DA40131E00D0AEE6C046C046BD4635
:1019100006B080BD001002400000014000040048F5
:10192000000800480004014080B584B000AF786032
:101930000A00BB1C1A807B681B69BA1C1288134002
:1019400004D00F23FB1801221A7003E00F23FB18A9
:1019500000221A700F23FB181B781800BD4604B034
:1019600080BD80B582B000AF786008001100BB1C5C
:10197000021C1A807B1C0A1C1A707B1C1B78002B13
:1019800004D0BB1C1A887B689A6103E0BB1C1A88D0
:101990007B689A62C046BD4602B080BD80B588B003
:1019A00000AF78607B68002B01D1012301E37B68E5
:1019B0001B680122134000D18DE0C34B5B680C22F1
:1019C0001340042B0ED0C04B5B680C221340082B35
:1019D00016D1BD4B5A6880235B021A4080235B02FC
:1019E0009A420DD1B84B1A6880239B02134000D154
:1019F00070E07B685B68002B00D06BE00123D8E2CD
:101A00007B685B68012B07D1AF4B1A68AE4B802116
:101A100049020A431A602FE07B685B68002B0CD1F7
:101A2000A94B1A68A84BA9490A401A60A64B1A6824
:101A3000A54BA7490A401A601EE07B685B68052B2E
:101A40000ED1A14B1A68A04B8021C9020A431A602B
:101A50009D4B1A689C4B802149020A431A600BE097
:101A6000994B1A68984B99490A401A60964B1A6824
:101A7000954B97490A401A607B685B68002B14D02D
:101A8000FFF7BAFA0300BB6108E0FFF7B5FA0200FE
:101A9000BB69D31A642B01D903238AE28A4B1A68E3
:101AA00080239B021340F0D015E0FFF7A5FA030056
:101AB000BB6108E0FFF7A0FA0200BB69D31A642BF0
:101AC00001D9032375E2804B1A6880239B021340DF
:101AD000F0D100E0C0467B681B680222134000D1B1
:101AE00069E0794B5B680C2213400BD0764B5B6846
:101AF0000C221340082B1CD1734B5A6880235B02C5
:101B0000134016D1704B1B680222134005D07B682E
:101B1000DB68012B01D001234BE26B4B1B68F822E1
:101B2000934319007B681B69DA00674B0A431A600C
:101B300041E07B68DB68002B24D0634B1A68624B62
:101B400001210A431A60FFF757FA0300BB6108E05E
:101B5000FFF752FA0200BB69D31A022B01D9032303
:101B600027E2594B1B6802221340F1D0564B1B68E9
:101B7000F822934319007B681B69DA00524B0A4331
:101B80001A6018E0504B1A684F4B01218A431A60C3
:101B9000FFF732FA0300BB6108E0FFF72DFA0200FD
:101BA000BB69D31A022B01D9032302E2464B1B68FF
:101BB00002221340F1D17B681B680822134036D003
:101BC0007B68DB69002B19D03F4B5A6A3E4B0121E1
:101BD0000A435A62FFF710FA0300BB6108E0FFF7FF
:101BE0000BFA0200BB69D31A022B01D90323E0E1EF
:101BF000354B5B6A02221340F1D018E0324B5A6A2F
:101C0000314B01218A435A62FFF7F6F90300BB61A9
:101C100008E0FFF7F1F90200BB69D31A022B01D9E2
:101C20000323C6E1284B5B6A02221340F1D17B6893
:101C30001B680422134000D1B4E01F203B1800228F
:101C40001A70214BDA6980235B05134010D11E4BBB
:101C5000DA691D4B802149050A43DA611A4BDA69BA
:101C600080235B051340FB60FB683B1801221A7060
:101C7000184B1A6880235B0013401AD1154B1A6861
:101C8000144B802149000A431A60FFF7B5F903009D
:101C9000BB6108E0FFF7B0F90200BB69D31A642BFF
:101CA00001D9032385E10B4B1A6880235B001340A5
:101CB000F0D07B689B68012B0ED1034B1A6A024B54
:101CC00001210A431A6235E000100240FFFFFEFFC7
:101CD000FFFFFBFF007000407B689B68002B0CD16E
:101CE000B64B1A6AB54B01218A431A62B34B1A6A82
:101CF000B24B04218A431A621CE07B689B68052B67
:101D00000CD1AE4B1A6AAD4B04210A431A62AB4B9D
:101D10001A6AAA4B01210A431A620BE0A74B1A6AFE
:101D2000A64B01218A431A62A44B1A6AA34B0421D1
:101D30008A431A627B689B68002B14D0FFF75CF91A
:101D40000300BB6109E0FFF757F90200BB69D31A32
:101D50009B4A934201D903232BE1984B1B6A022231
:101D60001340F0D013E0FFF747F90300BB6109E02F
:101D7000FFF742F90200BB69D31A914A934201D995
:101D8000032316E18D4B1B6A02221340F0D11F235F
:101D9000FB181B78012B05D1884BDA69874B8949E1
:101DA0000A40DA617B681B681022134063D07B68AD
:101DB0005B69012B2AD1814B5A6B804B04210A436A
:101DC0005A637E4B5A6B7D4B01210A435A63FFF7DE
:101DD00013F90300BB6108E0FFF70EF90200BB69CD
:101DE000D31A022B01D90323E3E0744B5B6B02226D
:101DF0001340F1D0714B5B6BF822934319007B6861
:101E00009B69DA006D4B0A435A6334E07B685B6977
:101E1000053311D1694B5A6B684B04218A435A63CD
:101E2000664B5B6BF822934319007B689B69DA0071
:101E3000624B0A435A631EE0604B5A6B5F4B0421AE
:101E40000A435A635D4B5A6B5C4B01218A435A63C8
:101E5000FFF7D2F80300BB6108E0FFF7CDF80200FE
:101E6000BB69D31A022B01D90323A2E0534B5B6B4E
:101E700002221340F1D17B681B6A002B00D197E04E
:101E80004E4B5B680C221340082B00D16BE07B6843
:101E90001B6A022B4CD1494B1A68484B4A490A40ED
:101EA0001A60FFF7A9F80300BB6108E0FFF7A4F888
:101EB0000200BB69D31A022B01D9032379E03F4BFF
:101EC0001A6880239B041340F0D13C4BDB6A0F223D
:101ED000934319007B68DA6A384B0A43DA62374B5E
:101EE0005B683A4A134019007B689A6A7B685B6AB0
:101EF0001A43324B0A435A60304B1A682F4B8021E9
:101F000049040A431A60FFF777F80300BB6108E051
:101F1000FFF772F80200BB69D31A022B01D9032321
:101F200047E0264B1A6880239B041340F0D03FE023
:101F3000224B1A68214B24490A401A60FFF75CF8CB
:101F40000300BB6108E0FFF757F80200BB69D31A32
:101F5000022B01D903232CE0184B1A6880239B0421
:101F60001340F0D124E07B681B6A012B01D10123CF
:101F70001FE0124B5B687B61104BDB6A3B617A6947
:101F800080235B021A407B685B6A9A420ED13B69F0
:101F90000F221A407B68DB6A9A4207D17A69F023E4
:101FA0009B031A407B689B6A9A4201D0012300E0A0
:101FB00000231800BD4608B080BDC0460010024096
:101FC00088130000FFFFFFEFFFFFFFFEFFFFC2FFD0
:101FD00080B584B000AF786039607B68002B01D198
:101FE0000123B3E05B4B1B68012213403A689A421D
:101FF00011D9584B1B68012293431900554B3A687D
:102000000A431A60534B1B68012213403A689A42F4
:1020100001D001239AE07B681B680222134015D08F
:102020007B681B680422134006D04B4B5A684A4B0E
:10203000E021C9000A435A60474B5B68F022934392
:1020400019007B689A68444B0A435A607B681B6896
:102050000122134040D07B685B68012B07D13E4BC7
:102060001A6880239B02134014D101236EE07B6821
:102070005B68022B07D1384B1A6880239B041340FE
:1020800008D1012362E0344B1B680222134001D1C6
:1020900001235BE0304B5B680322934319007B68AC
:1020A0005A682D4B0A435A60FEF7A6FF0300FB60F7
:1020B00009E0FEF7A1FF0200FB68D31A274A93420A
:1020C00001D9032342E0244B5B680C221A407B6851
:1020D0005B689B009A42ECD11E4B1B6801221340A7
:1020E0003A689A4211D21B4B1B6801229343190094
:1020F000184B3A680A431A60164B1B6801221340BA
:102100003A689A4201D0012320E07B681B680422D0
:10211000134009D0104B5B68114A134019007B68CB
:10212000DA680D4B0A435A6000F020F801000A4BB0
:102130005B681B090F2213400A4AD35C0A00DA408D
:10214000094B1A600320FEF711FF00231800BD465B
:1021500004B080BD0020024000100240881300003F
:10216000FFF8FFFFAC2F00080400002090B58FB0EF
:1021700000AF1423FB182B4A13CA13C312681A604A
:102180003B1D294A13CA13C312681A600023FB625D
:102190000023BB6200237B6300237B6200233B633D
:1021A000224B5B68FB62FB6A0C221340042B02D0BB
:1021B000082B03D02DE01E4B3B632DE0FB6A9B0CEC
:1021C0000F2213401422BA18D35C7B62174BDB6AD0
:1021D0000F2213403A1DD35CBB62FA6A80235B0274
:1021E000134009D0B96A1248FDF78EFF03001A00A8
:1021F0007B6A53437B6309E0796A0A005201521AF1
:1022000093019B1ADB005B181B027B637B6B3B63B8
:1022100002E0074B3B63C0463B6B1800BD460FB066
:1022200090BDC046582F0008682F000800100240DB
:1022300000127A0080B582B000AF78607B68002B16
:1022400001D1012342E07B683D229B5CDBB2002B85
:1022500007D17B683C22002199547B681800FEF767
:102260008BFD7B683D22022199547B681A687B684C
:1022700004331900100000F0CBFA7B6846220121DC
:1022800099547B683E22012199547B683F220121A9
:1022900099547B684022012199547B684122012195
:1022A00099547B684222012199547B684322012181
:1022B00099547B684422012199547B68452201216D
:1022C00099547B683D220121995400231800BD4692
:1022D00002B080BD80B582B000AF78607B68002B13
:1022E00001D1012342E07B683D229B5CDBB2002BE5
:1022F00007D17B683C22002199547B68180000F0CC
:1023000039F87B683D22022199547B681A687B6802
:1023100004331900100000F07BFA7B68462201218B
:1023200099547B683E22012199547B683F22012108
:1023300099547B684022012199547B6841220121F4
:1023400099547B684222012199547B6843220121E0
:1023500099547B684422012199547B6845220121CC
:1023600099547B683D220121995400231800BD46F1
:1023700002B080BD80B582B000AF7860C046BD4677
:1023800002B080BD80B584B000AF786039603B6832
:10239000002B08D17B683E229B5CDBB2013B5A1EBE
:1023A0009341DBB21FE03B68042B08D17B683F22DE
:1023B0009B5CDBB2013B5A1E9341DBB213E03B68EE
:1023C000082B08D17B6840229B5CDBB2013B5A1E84
:1023D0009341DBB207E07B6841229B5CDBB2013BAF
:1023E0005A1E9341DBB2002B01D001236AE03B6807
:1023F000002B04D17B683E220221995413E03B68F4
:10240000042B04D17B683F22022199540BE03B68E6
:10241000082B04D17B6840220221995403E07B6899
:102420004122022199547B681B68396801221800F7
:1024300000F0DEFC7B681B68244A934209D07B686D
:102440001B68234A934204D07B681B68214A93424D
:1024500001D1012300E00023002B08D07B681B681A
:102460005A6C7B681B68802109020A435A647B68A6
:102470001B68164A93420AD07B681A688023DB05E2
:102480009A4204D07B681B68134A934211D17B683F
:102490001B689B6807221340FB60FB68062B10D06B
:1024A0007B681B681A687B681B6801210A431A60F5
:1024B00007E07B681B681A687B681B6801210A4378
:1024C0001A6000231800BD4604B080BD002C0140F6
:1024D00000440140004801400004004080B586B03F
:1024E00000AFF860B9607A601723FB1800221A70F9
:1024F000FB683C229B5C012B01D10223ADE0FB6811
:102500003C22012199547B680C2B00D176E07B683A
:102510000C2B00D995E07B68082B4ED07B68082BEC
:1025200000D98EE07B68002B03D07B68042B21D080
:1025300087E0FB681B68BA681100180000F0DEF93C
:10254000FB681B689A69FB681B6808210A439A614B
:10255000FB681B689A69FB681B6804218A439A61BF
:10256000FB681B689969BB681A69FB681B680A43AA
:102570009A616BE0FB681B68BA681100180000F0F4
:102580003BFAFB681B689A69FB681B68802109019C
:102590000A439A61FB681B689A69FB681B683149AA
:1025A0000A409A61FB681B689969BB681B691A023B
:1025B000FB681B680A439A6148E0FB681B68BA68BD
:1025C0001100180000F096FAFB681B68DA69FB68D6
:1025D0001B6808210A43DA61FB681B68DA69FB683B
:1025E0001B6804218A43DA61FB681B68D969BB68F0
:1025F0001A69FB681B680A43DA6127E0FB681B68FD
:10260000BA681100180000F0F5FAFB681B68DA6977
:10261000FB681B68802109010A43DA61FB681B68BB
:10262000DA69FB681B680F490A40DA61FB681B68BE
:10263000D969BB681B691A02FB681B680A43DA6127
:1026400004E01723FB1801221A70C046FB683C22E5
:10265000002199541723FB181B781800BD4606B0BB
:1026600080BDC046FFFBFFFF80B584B000AF78603F
:1026700039600F23FB1800221A707B683C229B5C98
:10268000012B01D10223BCE07B683C22012199543B
:102690007B683D22022199547B681B689B68BB6064
:1026A000BB6877229343BB60BB68584A1340BB604A
:1026B0007B681B68BA689A603B681B68802292013D
:1026C000934240D080229201934200D988E0802238
:1026D0005201934200D188E080225201934200D9F6
:1026E0007EE0702B18D000D97AE0602B4FD000D953
:1026F00076E0502B3BD000D972E0402B57D000D968
:102700006EE0302B63D06BD8202B60D068D8002BC4
:102710005DD0102B5BD063E07B6818683B689968DC
:102720003B685A683B68DB6800F042FB7B681B68CB
:102730009B68BB60BB6877221343BB607B681B68E8
:10274000BA689A6052E07B6818683B6899683B6891
:102750005A683B68DB6800F02BFB7B681B689A6853
:102760007B681B688021C9010A439A603EE07B6850
:1027700018683B6859683B68DB681A0000F09EFAED
:102780007B681B685021180000F0F8FA2EE07B6887
:1027900018683B6859683B68DB681A0000F0BCFAAF
:1027A0007B681B686021180000F0E8FA1EE07B6877
:1027B00018683B6859683B68DB681A0000F07EFACD
:1027C0007B681B684021180000F0D8FA0EE07B6897
:1027D0001A683B681B681900100000F0CFFA05E08A
:1027E0000F23FB1801221A7000E0C0467B683D22CF
:1027F000012199547B683C22002199540F23FB1836
:102800001B781800BD4604B080BDC046FF00FFFF26
:1028100080B584B000AF786039607B681B68FB606E
:102820007B68304A934208D07A688023DB059A425D
:1028300003D07B682C4A934208D1FB6870229343F3
:10284000FB603B685B68FA681343FB607B68254A62
:10285000934214D07A688023DB059A420FD07B68BC
:10286000214A93420BD07B68204A934207D07B6871
:102870001F4A934203D07B681E4A934208D1FB68EB
:102880001D4A1340FB603B68DB68FA681343FB603A
:10289000FB68802293431A003B685B691343FB602B
:1028A0007B68FA681A603B689A687B68DA623B6802
:1028B0001A687B689A627B680A4A934207D07B68F1
:1028C0000B4A934203D07B680A4A934203D13B6888
:1028D0001A697B681A637B6801225A61C046BD464B
:1028E00004B080BD002C01400004004000200040E6
:1028F0000044014000480140FFFCFFFF80B586B066
:1029000000AF786039607B681B6A012293431A002C
:102910007B681A627B681B6A7B617B685B683B61D2
:102920007B689B69FB60FB6870229343FB60FB68DC
:1029300003229343FB603B681B68FA681343FB6008
:102940007B69022293437B613B689B687A691343EE
:102950007B617B68234A934207D07B68224A93427B
:1029600003D07B68214A93420CD17B6908229343B0
:102970007B613B68DB687A6913437B617B69042276
:1029800093437B617B68174A934207D07B68164A62
:10299000934203D07B68154A934211D13B69144A94
:1029A00013403B613B69134A13403B613B685B69E1
:1029B0003A6913433B613B689B693A6913433B6146
:1029C0007B683A695A607B68FA689A613B685A6822
:1029D0007B685A637B687A691A62C046BD4606B056
:1029E00080BDC046002C0140004401400048014029
:1029F000FFFEFFFFFFFDFFFF80B586B000AF7860F0
:102A000039607B681B6A102293431A007B681A6244
:102A10007B681B6A7B617B685B683B617B689B6949
:102A2000FB60FB682C4A1340FB60FB682B4A134099
:102A3000FB603B681B681B02FA681343FB607B6901
:102A4000202293437B613B689B681B017A69134397
:102A50007B617B68224A93420DD17B69802293433C
:102A60007B613B68DB681B017A6913437B617B698F
:102A7000402293437B617B68194A934207D07B686D
:102A8000184A934203D07B68174A934213D13B699B
:102A9000164A13403B613B69154A13403B613B6852
:102AA0005B699B003A6913433B613B689B699B00F0
:102AB0003A6913433B617B683A695A607B68FA68FC
:102AC0009A613B685A687B689A637B687A691A6284
:102AD000C046BD4606B080BDFF8FFFFFFFFCFFFF75
:102AE000002C01400044014000480140FFFBFFFF73
:102AF000FFF7FFFF80B586B000AF786039607B6874
:102B00001B6A334A1A407B681A627B681B6A7B61C6
:102B10007B685B683B617B68DB69FB60FB687022FC
:102B20009343FB60FB6803229343FB603B681B6895
:102B3000FA681343FB607B69264A13407B613B685C
:102B40009B681B027A6913437B617B68224A93422C
:102B50000DD17B69214A13407B613B68DB681B0216
:102B60007A6913437B617B691D4A13407B617B68F3
:102B7000194A934207D07B681A4A934203D07B6874
:102B8000194A934213D13B69184A13403B613B6990
:102B9000174A13403B613B685B691B013A69134369
:102BA0003B613B689B691B013A6913433B617B684E
:102BB0003A695A607B68FA68DA613B685A687B68F0
:102BC000DA637B687A691A62C046BD4606B080BD8A
:102BD000FFFEFFFFFFFDFFFF002C0140FFF7FFFF9F
:102BE000FFFBFFFF0044014000480140FFEFFFFFF3
:102BF000FFDFFFFF80B586B000AF786039607B688B
:102C00001B6A264A1A407B681A627B681B6A3B6112
:102C10007B685B687B617B68DB69FB60FB68204AE3
:102C20001340FB60FB681F4A1340FB603B681B6856
:102C30001B02FA681343FB603B691B4A13403B616C
:102C40003B689B681B033A6913433B617B68174AE7
:102C5000934207D07B68164A934203D07B68154A9B
:102C6000934209D17B69144A13407B613B685B69DD
:102C70009B017A6913437B617B687A695A607B6840
:102C8000FA68DA613B685A687B681A647B683A695B
:102C90001A62C046BD4606B080BDC046FFEFFFFFCA
:102CA000FF8FFFFFFFFCFFFFFFDFFFFF002C014056
:102CB0000044014000480140FFBFFFFF80B586B0DF
:102CC00000AFF860B9607A60FB681B6A7B61FB68E3
:102CD0001B6A012293431A00FB681A62FB689B6916
:102CE0003B613B69F02293433B617B681B013A697E
:102CF00013433B617B690A2293437B617A69BB681A
:102D000013437B61FB683A699A61FB687A691A62CE
:102D1000C046BD4606B080BD80B586B000AFF86045
:102D2000B9607A60FB681B6A102293431A00FB6843
:102D30001A62FB689B697B61FB681B6A3B617B696C
:102D40000D4A13407B617B681B037A6913437B61E7
:102D50003B69A02293433B61BB681B013A69134363
:102D60003B61FB687A699A61FB683A691A62C046FE
:102D7000BD4606B080BDC046FF0FFFFF80B584B0E2
:102D800000AF786039607B689B68FB60FB687022ED
:102D90009343FB603A68FB68134307221343FB60CD
:102DA0007B68FA689A60C046BD4604B080BD0000EA
:102DB00080B586B000AFF860B9607A603B60FB68B0
:102DC0009B687B617B69094A13407B613B681A02FF
:102DD0007B681A43BB6813437A6913437B61FB68C2
:102DE0007A699A60C046BD4606B080BDFF00FFFF0D
:102DF00080B586B000AFF860B9607A60BB681F220A
:102E0000134001229A4013007B61FB681B6A7A69B8
:102E1000D2431A40FB681A62FB681A6ABB681F211A
:102E20000B40796899400B001A43FB681A62C04650
:102E3000BD4606B080BD000080B584B000AF7860AC
:102E400039607B683C229B5C012B01D1022342E06C
:102E50007B683C22012199547B683D2202219954D0
:102E60007B681B685B68FB607B681B689B68BB605A
:102E7000FB6870229343FB603B681B68FA6813434E
:102E8000FB607B681B68FA685A607B681B68144AA1
:102E900093420AD07B681A688023DB059A4204D0EB
:102EA0007B681B680F4A93420CD1BB688022934316
:102EB000BB603B685B68BA681343BB607B681B6898
:102EC000BA689A607B683D22012199547B683C2254
:102ED0000021995400231800BD4604B080BDC046AF
:102EE000002C01400004004070B500260C4D0D4C34
:102EF000641BA410A64209D1002600F021F80A4D57
:102F00000A4C641BA410A64205D170BDB300EB5857
:102F100098470136EEE7B300EB5898470136F2E7E1
:102F2000BC2F0008BC2F0008BC2F0008C02F0008D1
:102F300003008218934200D1704719700133F9E7FA
:102F4000F8B5C046F8BC08BC9E467047F8B5C04608
:082F5000F8BC08BC9E46704766
:102F580002030405060708090A0B0C0D0E0F1010D2
:102F68000102030405060708090A0B0C0D0E0F10D1
:102F780036030008420300084E0300085A030008FD
:102F880066030008720300087E0300088A0300082D
:102F9800AE050008E60500080E060008460600080B
:102FA8007E06000800000000000000000102030483
:042FB80006070809F7
:042FBC00E900000820
:042FC000C100000844
:102FC4000100000000127A0004000000010000006B
:0400000508000EF1F0
:00000001FF
