:020000040800F2
:1000000000100020290B00080D0B0008110B000840
:1000100000000000000000000000000000000000E0
:10002000000000000000000000000000150B0008A8
:100030000000000000000000190B00081D0B000864
:10004000790B0008790B0008790B0008790B000880
:10005000790B0008790B0008790B0008790B000870
:1000600000000000790B0008790B0008790B0008EC
:10007000790B0008790B0008790B0008790B000850
:10008000790B00080000000000000000790B000858
:1000900000000000790B0008790B0008790B0008BC
:1000A00000000000790B000800000000790B000838
:1000B0000000000000000000000000000000000040
:1000C00010B5064C2378002B07D1054B002B02D02E
:1000D000044800E000BF0123237010BD3804002055
:1000E0000000000018210008084B10B5002B03D0B9
:1000F0000749084800E000BF07480368002B00D10B
:1001000010BD064B002BFBD09847F9E7000000001C
:100110003C040020182100083804002000000000E2
:10012000002243088B4274D303098B425FD3030A36
:100130008B4244D3030B8B4228D3030C8B420DD349
:10014000FF22090212BA030C8B4202D312120902D7
:1001500065D0030B8B4219D300E0090AC30B8B4215
:1001600001D3CB03C01A5241830B8B4201D38B03C3
:10017000C01A5241430B8B4201D34B03C01A524168
:10018000030B8B4201D30B03C01A5241C30A8B42AB
:1001900001D3CB02C01A5241830A8B4201D38B0296
:1001A000C01A5241430A8B4201D34B02C01A52413A
:1001B000030A8B4201D30B02C01A5241CDD2C309AC
:1001C0008B4201D3CB01C01A524183098B4201D328
:1001D0008B01C01A524143098B4201D34B01C01A13
:1001E000524103098B4201D30B01C01A5241C3088B
:1001F0008B4201D3CB00C01A524183088B4201D3FA
:100200008B00C01A524143088B4201D34B00C01AE5
:100210005241411A00D20146524110467047FFE751
:1002200001B5002000F006F802BDC0460029F7D055
:1002300076E770477047C046F0B589B014220021B8
:1002400003A801F08BFE324B59698022D20311437F
:10025000596159690A400092009A596980229202B4
:100260001143596159690A400192019A59698022E2
:10027000D202114359615B691A400292029B254FD9
:1002800000220221380000F04BFF9026F6050122E3
:100290002021300000F044FF0022E821C900300096
:1002A00000F03EFF0125039500240494059403A962
:1002B000380000F073FE022303930495059406941E
:1002C00003A9380000F06AFE03950494059503A97C
:1002D000300000F063FEEC23DB00039304950594EB
:1002E000069403A9300000F059FE03950494059587
:1002F000094D03A9280000F051FE802303930494C4
:10030000059403A9280000F049FE09B0F0BDC046DD
:1003100000100240001400480004004864280AD875
:10032000002801D0642802D1054B586306E001384B
:10033000034B586302E00022014B5A637047C046EA
:100340000020004070B50E0001280AD0002804D01B
:10035000022818D0032829D02CE00022174B5A631A
:100360002BE07D22154B5A6327E0144D7D236B63F0
:10037000FA20C00000F04AFC00236B630A2000F062
:1003800045FC013400E00024B442EEDB15E00B4DE7
:100390007D236B63FA20400000F038FC00236B6380
:1003A0009620400000F032FC013400E00024B4420A
:1003B000EDDB02E00022014B5A6370BD00040040F7
:1003C00070B50E0015009024E4050200802189001C
:1003D000200000F0A5FE320080214900200000F03E
:1003E0009FFE2A008021C900200000F099FE70BD08
:1003F00010B5072833D880001C4B1B589F4601229C
:1004000001210120FFF7DCFF2EE001220121002065
:10041000FFF7D6FF28E0012200210120FFF7D0FFDF
:1004200022E0002201210120FFF7CAFF1CE0012287
:1004300000210020FFF7C4FF16E000220121002068
:10044000FFF7BEFF10E0002200210120FFF7B8FFF8
:100450000AE0002200210020FFF7B2FF04E00122A1
:1004600001210120FFF7ACFF10BDC046502100085C
:1004700010B5020040219020C00500F051FE10BDD3
:1004800010B59024E40500222021200000F048FE51
:1004900000224021200000F043FE002202212048DB
:1004A00000F03EFE00211F4801F046FC00211E48DE
:1004B00001F042FC0020FFF731FF00210020FFF790
:1004C00041FF0120FFF794FFFA2000F09FFB02207C
:1004D000FFF78EFFFA2000F099FB0320FFF788FF5B
:1004E000FA2000F093FB0420FFF782FFFA2000F0CF
:1004F0008DFB0520FFF77CFFFA2000F087FB06202C
:10050000FFF776FFFA2000F081FB0720FFF770FF6E
:10051000FA2000F07BFB0020FFF76AFF10BDC04609
:1005200000140048E004002058040020F8B505003D
:100530000F0016000121194800F0EAFD002806D03E
:1005400000240BE00134642000F060FB00E0002494
:100550000121124800F0DCFD0028F3D0132C08DD47
:100560002B68002B02D101332B600DE000232B60A0
:100570000AE0013C122C07D82B68032B02DD022372
:100580002B6001E001332B6033682A68934203D06B
:1005900001233B702B683360F8BDC046001400484F
:1005A00010B50C000368042B72D89B00394AD3584D
:1005B0009F460020FFF71CFF0020FFF759FF002295
:1005C00020219020C00500F0ABFD0020FFF7A6FE23
:1005D0002378002B05D001210220FFF7B3FE002372
:1005E00023700120FFF704FF2378002B50D0012156
:1005F0000220FFF7A7FE0023237049E00120FFF748
:10060000F7FE0120FFF734FF012220219020C005D2
:1006100000F086FD3220FFF781FE2378002B37D0D3
:1006200001210320FFF78EFE0023237030E002201B
:10063000FFF7DEFE0120FFF71BFF012220219020A3
:10064000C00500F06DFD5020FFF768FE2378002BF9
:100650001ED002210320FFF775FE0023237017E050
:100660000320FFF7C5FE0120FFF702FF0122202132
:100670009020C00500F054FD6420FFF74FFE237862
:10068000002B05D003210320FFF75CFE002323701D
:1006900010BDC0467021000810B5040001211948A2
:1006A00000F036FD002C22DD00280BD10028FDD003
:1006B000154A13780133DBB21370012B02D90022E3
:1006C000114B1A70104B1B78002B02D0012B07D056
:1006D00016E0012220219020C00500F021FD0FE04E
:1006E000002220219020C00500F01AFD08E0012220
:1006F000054B1A70002220219020C00500F010FD4B
:1007000010BDC046000400485404002010B58021EC
:10071000114800F0FDFC114C207001219020C00513
:1007200000F0F6FC02000E4B18702378012B0DD15F
:10073000002805D1013202210A4800F0F1FC0AE04C
:1007400000220221074800F0EBFC04E00022022115
:10075000044800F0E5FC10BD000400482805002016
:10076000000000200014004872B6FEE700B58FB00C
:10077000102200210AA801F0F1FB0822002108A89C
:1007800001F0ECFB1C22002101A801F0E7FB21484D
:10079000214B03600923436000238360FB22C26076
:1007A0000361836101F020F9002801D0FFF7DCFF2D
:1007B00080235B010A930AA9164801F02DFA00284C
:1007C00001D0FFF7D1FF134801F03AF9002801D01A
:1007D000FFF7CAFF00230893099308A90D4801F009
:1007E00029FB002801D0FFF7BFFF602301931D33D1
:1007F0000293002303930593002201A9054801F009
:1008000089F9002801D0FFF7AFFF024800F03EF958
:100810000FB000BDE00400200004004000B589B026
:100820001C22002101A801F099FB1648164B036019
:1008300003234360002383606322C26003618361FA
:1008400001F0D2F8002801D0FFF78EFF0D4801F02B
:10085000F7F8002801D0FFF787FF602301930023FA
:10086000029303930593002201A9064801F052F96F
:10087000002801D0FFF778FF024800F007F909B01F
:1008800000BDC046580400200020004000B585B0DF
:100890000C22002101A801F061FB1748174B0360EF
:1008A000002343608360C36001220261042141612F
:1008B000037643768376C376C221FF31C16103623A
:1008C0009E39FF394354826200F0B2F9002801D00A
:1008D000FFF74AFF0723019380235B0102938023E4
:1008E0005B05039301A9044800F064FA002801D0D5
:1008F000FFF73AFF05B000BDA0040020002401402E
:1009000010B590B03022002104A801F027FB10247C
:1009100010220021684601F021FB12230493113BB1
:100920000793099308940A9404A800F0FFFB002899
:1009300001D0FFF719FF07230093002301930293CF
:1009400003930021684600F089FE002801D0FFF7DC
:100950000BFF10B010BDC04600B585B00023039357
:100960000B226A441370019300F02EF9FFF7C8FFC1
:10097000FFF762FCFFF7FAFEFFF750FFFFF786FF75
:10098000FFF77EFD322000F041F9FFF7BFFE01AA1C
:100990000B236B44190003A8FFF7C8FD0B236B441E
:1009A000190003A8FFF7FCFD0398FFF775FE01206F
:1009B000FFF75EFDE9E7C04682B00A4B9969012066
:1009C000014399619A6902400092009AD969802294
:1009D00052051143D961DB691A400192019B02B0B3
:1009E0007047C0460010024010B588B004001422C1
:1009F000002103A801F0B2FA2268104B9A421BD1E1
:100A00000F4B9969802292001143996199690A40BC
:100A10000192019A596980229202114359615B69DE
:100A20001A400292029B802303937D3B049303A907
:100A30009020C00500F0B2FA08B010BD00240140BB
:100A40000010024082B003680D4A934209D10D4A5A
:100A5000D16902200143D161D36903400093009B17
:100A60000CE0094A934209D1064AD16980235B0010
:100A70001943D161D26913400193019B02B07047C1
:100A800000040040001002400020004010B588B073
:100A900004001422002103A801F060FA2368174A19
:100AA000934214D1164A51698023DB0219435161E4
:100AB000526913400193019B102303930E3B04934F
:100AC000013B079303A90F4800F068FA13E00E4AB0
:100AD000934210D10A4A51698023DB0219435161C4
:100AE000526913400293029B02230393049303A9C8
:100AF000044800F053FA08B010BDC046000400409E
:100B0000001002400004004800200040FEE7C046FC
:100B1000FEE7C0467047C0467047C04610B500F0BB
:100B200063F810BD7047C0460D4885460D480E4914
:100B30000E4A002302E0D458C4500433C4188C4237
:100B4000F9D30B4A0B4C002301E013600432A2429C
:100B5000FBD3FFF7E7FF01F09FF9FFF7FDFEFEE78C
:100B6000001000200000002038040020A42100080C
:100B70003804002030050020FEE7000010B5040016
:100B80000E4B1978FA208000FFF7CAFA01000C4BCF
:100B90001868FFF7C5FA00F0E5F900280AD1032C20
:100BA0000AD800222100013800F0AAF9054B1C6088
:100BB000002002E0012000E0012010BD0C00002018
:100BC000040000200800002010B5064A1168102318
:100BD0000B4313600320FFF7D1FFFFF7EDFE00206A
:100BE00010BDC04600200240034A1368034909783B
:100BF000CB1813607047C0462C0500200C00002065
:100C0000014B18687047C0462C05002070B50400E1
:100C1000FFF7F6FF0500631C02D0044B1B78E418B5
:100C2000FFF7EEFF401B8442FAD870BD0C00002095
:100C300070B5041E00D1B5E0836B002B04D1C363F3
:100C400034228354FFF7D0FEA36BDB0600D5A3E06C
:100C50002268936804210B4000D09DE0A06B5249AC
:100C6000014002200143A163916801300140012944
:100C700007D11168C90706D4D168090405D4002139
:100C800004E0002102E0012100E0012100290CD153
:100C9000D16818208143A0680143D16021680A69A6
:100CA00092009208606802430A612168C8683F4A5E
:100CB0000240CA60227E9003617ECA030243A07E86
:100CC00041030A43A16A012902D08021490100E0C1
:100CD00019000A43E1680A432169022900D104236B
:100CE00013432422A25C52001343E27E012A0DD159
:100CF000002803D180225202134307E0A16B202277
:100D00000A43A263E16B01220A43E263E269C22162
:100D1000FF318A4202D0216A0A4313432168CA681C
:100D20001A43CA60E26A802149058A420DD0012A2D
:100D30000BD0022A09D0032A07D0042A05D0052A9D
:100D400003D0062A01D0072A0AD120684169072268
:100D50009143416121684869E56A2A4002434A613A
:100D60002268D168124A0A40934209D10023E36302
:100D7000A36B03229343023A1343A363002012E0C0
:100D8000A36B12229343023A1343A363E26B012342
:100D90001343E363012006E0A26B10231343A36314
:100DA000012000E0012070BDFDFEFFFF1902FEFFE3
:100DB000E7FF3F8330B583B0040000230193343351
:100DC000C35C012B00D189E001223423C2540368A3
:100DD0009A68520773D4434A4868904254D0986A3C
:100DE00001220D68AA4002439A62E36A80225205FA
:100DF00093421ED0012B1CD0022B1AD0032B18D0EB
:100E0000042B16D0052B14D0062B12D0072B10D094
:100E100022685369072003408868984209D05069C6
:100E2000072398435061226850698D682B40034323
:100E300053610B681A00103A022A46D82A4A1268EF
:100E4000102B04D0112B05D18023DB0304E0802379
:100E50001B0401E080235B041343234A13600B68E7
:100E6000102B34D1214B18682149FFF759F9830021
:100E700018184300019302E0019B013B0193019B81
:100E8000002BF9D1002025E09A6A01200D68A840C6
:100E900082439A620B681A00103A022A19D8124A41
:100EA0001268102B03D0112B03D1124B02E0124B0E
:100EB00000E0124B13400C4A136000200AE0826BE2
:100EC000202313438363012004E0002002E000207C
:100ED00000E0002000223423E25400E0022003B0AE
:100EE00030BDC0460110000008270140040000206A
:100EF00040420F00FFFFBFFFFFFF7FFFFFFFFFFE2E
:100F000070B5002811DB8208144DC032920054598C
:100F100003231840C000FF26330083409C4389010F
:100F2000314081402143515116E0C0B20F230340AC
:100F3000083B9B0806339B00094A944663445A6861
:100F400003242040C000FC3425008540AA438901C9
:100F5000214081401143596070BDC04600E100E06E
:100F600000ED00E001380A4B98420FD8094A506062
:100F700009490B6A1B021B0AC020000603430B62CF
:100F80000023936007331360002000E001207047C6
:100F9000FFFFFF0010E000E000ED00E0F0B583B0DF
:100FA0000023A4E001249C40224000D19EE00325C0
:100FB0004E683540013D012D11D885685F0003263C
:100FC000BE40B543CE68BE40354385604668A64303
:100FD0004C68250901242C409C4034434460032480
:100FE0004D682C40032C08D0C4685E000325B54032
:100FF000AC438D68B5402C43C46003244D682C403D
:10100000022C0ED1DC080834A400275807251D4007
:10101000AD000F26AE40B7430E69AE403D003543EC
:10102000255005685E0003242700B740BD434F6884
:101030003C40B4402C430460C024A4024D682542C7
:1010400054D02E4DAE6901273E43AE61AC693C40A1
:101050000194019C9C08A51CAD00294EAF590325A5
:101060001D40AD000F26AE40B7439026F605B042B6
:1010700007D0244EB04206D0234EB04205D10226FE
:1010800004E0002602E0012600E00526AE4035001F
:101090003D430234A4001A4EA5511C4C2568D4438C
:1010A00026002E404F68FF0301D515432E00174D33
:1010B0002E606D682E0026404F68BF0301D5154392
:1010C0002E00124D6E60AD682E0026404F68FF0264
:1010D00001D515432E000D4DAE60ED682C404E68D5
:1010E000B60201D52A431400084AD46001330A68C5
:1010F0001400DC4000D055E703B0F0BD0010024002
:1011000000000140000400480008004800040140BD
:1011100003690B4201D0012000E000207047C04667
:10112000002A01D0816100E08162704770B582B011
:10113000041E00D12BE20368DB0763D5C44B5B6858
:101140000C221340042B08D0C14B5B681340082BC2
:101150000BD1BF4B5B68DB0307D5BD4B1B689B0303
:1011600050D56368002B4DD113E26368012B06D183
:10117000B74A1368802149020B43136022E0002B19
:1011800009D1B34B1968B34A0A401A601968B24AC8
:101190000A401A6016E0052B0BD1AD4B1A6880216E
:1011A000C9020A431A601A68802149020A431A6078
:1011B00008E0A74B1968A74A0A401A601968A64AAE
:1011C0000A401A606368002B0ED0FFF719FD050076
:1011D00005E0FFF715FD401B642800D9DBE19C4BBF
:1011E0001B689B03F5D50DE0FFF70AFD050005E040
:1011F000FFF706FD401B642800D9CEE1944B1B6825
:101200009B03F5D423689B0750D5914B5B680C2258
:101210001A4208D08E4B5B681340082B14D18C4BBC
:101220005B68DB0310D48A4B1B689B0703D5E3681C
:10123000012B00D0B3E186490B68F8229343226961
:10124000D20013430B6031E0E368002B1BD0804ACF
:10125000116801230B431360FFF7D2FC050005E082
:10126000FFF7CEFC401B022800D99AE1784B1B689F
:101270009B07F5D576490B68F82293432269D20083
:1012800013430B6012E0724A136801218B43136011
:10129000FFF7B6FC050005E0FFF7B2FC401B022893
:1012A00000D980E16A4B1B689B07F5D423681B07B4
:1012B00029D5E369002B13D0654A516A01230B43FA
:1012C0005362FFF79DFC050005E0FFF799FC401B0A
:1012D000022800D969E15E4B5B6A9B07F5D512E0F5
:1012E0005B4A536A01218B435362FFF789FC050077
:1012F00005E0FFF785FC401B022800D957E1544B5D
:101300005B6A9B07F5D423685B077AD5504BDB6992
:10131000DB000BD44E4AD16980235B051943D161B0
:10132000D26913400193019B012500E000254B4B3E
:101330001B68DB0513D4494A1368802149000B431D
:101340001360FFF75DFC060005E0FFF759FC801B0A
:10135000642800D92DE1414B1B68DB05F5D5A36856
:10136000012B04D13A4A116A0B43136220E0002B8F
:1013700009D1374B1A6A01218A431A621A6A03316A
:101380008A431A6214E0052B09D1314B196A0422F1
:101390000A431A62196A01220A431A6208E02C4BB6
:1013A0001A6A01218A431A621A6A03318A431A624D
:1013B000A368002B0FD0FFF723FC060006E0FFF721
:1013C0001FFC801B264B984200D9F4E0204B1B6A7F
:1013D0009B07F4D50EE0FFF713FC060006E0FFF7CD
:1013E0000FFC801B1E4B984200D9E6E0184B1B6A8D
:1013F0009B07F4D4012D04D1154AD169194B0B4038
:10140000D3612368DB0655D56369012B2CD1104BC2
:10141000596B04220A435A63596B01220A435A63E7
:10142000FFF7EEFB050005E0FFF7EAFB401B022893
:1014300000D9C4E0064B5B6B9B07F5D504494B6BA9
:10144000F82293431A00A369DB0013434B6331E096
:1014500000100240FFFFFEFFFFFFFBFF0070004097
:1014600088130000FFFFFFEF05330CD15E494B6B83
:10147000042293434B634B6BF4329343A269D20033
:1014800013434B6316E0584B596B04220A435A63CB
:101490005A6B01218A435A63FFF7B2FB050005E04E
:1014A000FFF7AEFB401B022800D98AE04E4B5B6B76
:1014B0009B07F5D4236A002B00D184E04A4A526886
:1014C0000C210A40082A4AD0022B34D1464A11681E
:1014D000464B0B401360FFF793FB050004E0FFF75A
:1014E0008FFB401B022870D83F4B1B689B01F6D432
:1014F0003D4BDA6A0F218A43E16A0A43DA6258688F
:101500003B4A1040A26A616A0A4302435A601A6861
:10151000802149040A431A60FFF772FB040004E0CB
:10152000FFF76EFB001B022851D82F4B1B689B0155
:10153000F6D5002056E02C4A11682C4B0B40136066
:10154000FFF75EFB040004E0FFF75AFB001B0228D4
:101550003FD8254B1B689B01F6D4002042E0012BAD
:1015600039D0214B5A68D96A80235B021340606AE4
:10157000834232D10F231940E36A99422FD1F023DD
:101580009B031A40A36A9A422BD001202AE0012033
:1015900028E0012026E0032024E0032022E00120AF
:1015A00020E003201EE003201CE003201AE00320BB
:1015B00018E0032016E0032014E0032012E00320CB
:1015C00010E003200EE000200CE003200AE00320DE
:1015D00008E0032006E0012004E0012002E00120F1
:1015E00000E0002002B070BD00100240FFFFFFFECF
:1015F000FFFFC2FF10B588B0144C1022210004A8D0
:1016000000F06EFC210010311022684600F068FCEA
:101610000F4B5A680C231340082B13D1910C0F2049
:10162000014004AB5C5C0A4BDB6A03406946C95C61
:10163000D30304D50748FEF773FD604303E0064873
:10164000604300E0034808B010BDC04630210008E8
:101650000010024000127A0000093D0070B504003D
:101660000D0000287AD0444B1B68012213408B42A6
:1016700009D2414A136801218B432B43136013683D
:101680000B409D426CD123689A070ED55B0705D5A8
:101690003A4A5368E021C9000B435360374A536804
:1016A000F0218B43A1680B4353602368DB072AD5E5
:1016B0006268012A04D1314B1B689B030BD451E0B3
:1016C000022A04D12D4B1B689B0104D44CE02B4B08
:1016D0001B689B074AD529494B6803208343134362
:1016E0004B60FFF78DFA060005E0FFF789FA801BD3
:1016F000234B98423CD8214B5B680C221A4063680C
:101700009B009A42F1D11C4B1B68012213409D4261
:1017100009D2194A136801218B432B4313601368C4
:101720000B409D4226D123685B0706D513494A68C2
:10173000144B1340E26813434B60FFF75BFF0F4B02
:101740005B681B090F2213400F4AD35CD8400F4B34
:1017500018600320FFF712FA00200CE001200AE0D5
:10176000012008E0012006E0012004E0012002E061
:10177000032000E0012070BD002002400010024064
:1017800088130000FFF8FFFF8421000804000020F8
:1017900030B5036A012293430362036A4468826995
:1017A0007325AA430D682A430225AB438D682B435A
:1017B000114DA84205D0114DA84202D0104DA842AB
:1017C00005D10825AB43CD682B430425AB430A4D17
:1017D000A84205D0094DA84202D0094DA84205D122
:1017E000084D2C404D692C438D692C434460826127
:1017F0004A684263036230BD002C0140004401404E
:1018000000480140FFFCFFFF30B5026A174B134050
:101810000362026A4468C56973239D430B681D43D4
:10182000134B13408A6812021343124A904206D1A6
:10183000114A1340CA6812021343104A13400D4A5A
:10184000904205D00E4A904202D00E4A904207D1F3
:101850000D4A14404A69120114438A691201144363
:101860004460C5614A68C263036230BDFFFEFFFF8A
:10187000FFFDFFFF002C0140FFF7FFFFFFFBFFFF15
:101880000044014000480140FFCFFFFF70B5026AED
:10189000114B13400362066A4568C4690F4A14403D
:1018A0000B681A0214430E4B33408A681203134329
:1018B0000C4A904205D00C4A904202D00B4A90420A
:1018C00004D10B4A15404A69920115434560C46131
:1018D0004A680264036270BDFFEFFFFFFF8CFFFFE9
:1018E000FFDFFFFF002C01400044014000480140A1
:1018F000FFBFFFFF30B5036A046A0125AC430462F1
:101900008469EF35AC43120122430A24A3431943EF
:101910008261016230BDC04630B5036A1024A34322
:1019200003628569036A054C2C4012032243A024FC
:10193000A343090119438261016230BDFF0FFFFF1C
:1019400083687022934319430723194381607047CA
:101950007047C04603681E4A904206D08022D205D6
:10196000904202D01B4A904203D1702293434A68AE
:101970001343174A90420FD08022D20590420BD0D9
:10198000144A904208D0144A904205D0134A90421B
:1019900002D0134A904203D1124A1340CA6813433B
:1019A000802293434A69134303608B68C3620B68C8
:1019B0008362074B984205D0084B984202D0084BEF
:1019C000984201D10B690363012343617047C0460C
:1019D000002C014000040040002000400044014071
:1019E00000480140FFFCFFFF70B5041E25D03D23D9
:1019F000C35C002B04D100223C33C254FFF722F811
:101A00003D2502236355211D2068FFF7A3FF012315
:101A10004622A354083AA3540132A3540132A354DA
:101A20000132A3540132A3540132A3540132A3540E
:101A30000132A3546355002000E0012070BDC04670
:101A400070B5041E25D03D23C35C002B04D10022B9
:101A50003C33C254FFF77CFF3D2502236355211D13
:101A60002068FFF777FF01234622A354083AA354C6
:101A70000132A3540132A3540132A3540132A354BE
:101A80000132A3540132A3540132A3546355002000
:101A900000E0012070BDC04630B5036A10229343B8
:101AA0000362036A45688469154A14400A68120291
:101AB0001443202293438A6812011343114A90422F
:101AC00006D180229343CA681201134340229343F4
:101AD0000C4A904205D00C4A904202D00B4A9042E8
:101AE00007D10B4A15404A69920015438A69920052
:101AF0001543456084614A688263036230BDC04615
:101B0000FF8CFFFF002C01400044014000480140D1
:101B1000FFF3FFFF70B504000D003C23C35C012BF5
:101B20006AD001213C23C154042A1DD002D8002AC6
:101B300005D05CE0082A2ED00C2A41D057E02900BD
:101B40000068FFF725FE2268916908230B43936123
:101B50002268936904218B439361226891692B6900
:101B60000B439361002043E029000068FFF794FFD6
:101B700022689369802109010B439361226891696E
:101B80001E4B0B409361226891692B691B020B432A
:101B9000936100202CE029000068FFF735FE2268E1
:101BA000D16908230B43D3612268D36904218B4395
:101BB000D3612268D1692B690B43D361002017E000
:101BC00029000068FFF762FE2268D36980210901BD
:101BD0000B43D3612268D169084B0B40D361226863
:101BE000D1692B691B020B43D361002000E0012067
:101BF00000223C23E25400E0022070BDFFFBFFFF07
:101C000030B58568034C2C401B021A431143214315
:101C1000816030BDFF00FFFF10B504003C23C35CB2
:101C2000012B76D001223C23C25401320133C2542D
:101C300002689068384B034093600B68402B4FD08C
:101C40000AD8102B57D002D8002B54D059E0202BA3
:101C500051D0302B4FD054E0702B10D004D8502BE3
:101C600028D0602B31D04CE080225201934204D026
:101C70008022920193420FD043E0002042E0CB68E3
:101C80004A6889682068FFF7BBFF2268916877235C
:101C90000B439360002035E0CB684A688968206870
:101CA000FFF7AEFF226893688021C9010B43936060
:101CB000002027E0CA6849682068FFF71BFE502112
:101CC0002068FFF73DFE00201CE0CA6849682068D4
:101CD000FFF722FE60212068FFF732FE002011E0AE
:101CE000CA6849682068FFF705FE40212068FFF7B1
:101CF00027FE002006E019002068FFF721FE0020E3
:101D000000E0012001223D23E2540022013BE25485
:101D100000E0022010BDC0468800FFFF10B51F2361
:101D2000194001248C40036AA3430362036A8A407A
:101D30001A43026210BDC04610B50400002906D146
:101D40003E23C35C013B5A1E9341DBB217E00429DA
:101D500006D13F23C35C013B5A1E9341DBB20EE028
:101D6000082906D14023C35C013B5A1E9341DBB2D4
:101D700005E04123C35C013B5A1E9341DBB2002BBB
:101D80004CD1002903D102223E33E2540EE0042953
:101D900003D102223F23E25408E0082903D10222A2
:101DA0004023E25402E002224123E254012220684F
:101DB000FFF7B4FF23681B4A934207D01A4A9342A5
:101DC00006D01A4A934205D1012204E0012202E022
:101DD000012200E00022002A04D05A6C802109026E
:101DE0000A435A6423680F4A934206D08022D205E0
:101DF000934202D00E4A93420AD19A6807210A40C0
:101E0000062A0DD0196801220A431A60002008E052
:101E1000196801220A431A60002002E0012000E054
:101E2000002010BD002C014000440140004801404A
:101E30000004004030B53C23C35C012B25D00122B7
:101E40003C23C25401320133C25403685A689C686F
:101E50007025AA430D682A435A6003680C4A9342CE
:101E600006D08022D205934202D00A4A934204D17E
:101E7000802294434A6814439C6001223D23C2544B
:101E80000022013BC254002000E0022030BDC046C9
:101E9000002C01400004004070B50D4E0D4D002493
:101EA000AD1BAD1005D0A300F35801349847A542EF
:101EB000F9D100F031F9084E084D0024AD1BAD10EA
:101EC00005D0A300F35801349847A542F9D170BD5D
:101ED000982100089821000898210008A0210008F6
:101EE00070B50F2A32D90C0004430B00A40731D17E
:101EF00015000400103D2D0901352D0149191E68FA
:101F000026605E6866609E68A660DE681033E660E4
:101F100010349942F3D10F2345191340032B1BD9D9
:101F20001C1F0023A4080134A400CE58EE50043333
:101F30009C42FAD103232D1909191A4005D0002318
:101F4000CC5CEC5401339A42FAD170BD0500002AF2
:101F5000F5D1FAE70500F2E71A00F8E770B5830754
:101F60003FD0541E002A3BD0CEB20300032503E02D
:101F7000621E002C34D0140001335A1E16702B42FE
:101F8000F6D1032C24D9FF250D402A0215432A043B
:101F900015430F2C11D92600103E360901363601A3
:101FA0001A009B19156055609560D56010329342F8
:101FB000F8D10F221440032C0AD9261FB608013687
:101FC000B6001A009B1920C29342FCD10322144090
:101FD000002C05D0C9B21C19197001339C42FBD1E9
:101FE00070BD14000300CCE7034B10B5002B02D0EA
:101FF000024800F005F810BD0000000011200008A4
:1020000010B5010000230022002000F01BF810BDD5
:1020100070B5094B094CE41AA41009D0084AA51858
:10202000AD00ED182B68013C9847043D002CF9D118
:1020300000F078F870BDC046A0210008A421000877
:10204000FFFFFF3FF8B544465F4656464D469B4668
:102050002F4BF0B41C68A4235B000500E0580E0071
:10206000904600284BD043681F2B0DDC5C1C002DD4
:1020700021D102339B0044601E5000203CBC90469E
:102080009946A246AB46F8BD224B002B3CD0C82057
:10209000400000E000BF002836D0A42200235200F8
:1020A000A15843600160A0504032835004328350F5
:1020B0000124002DDDD09A009146814442468821BA
:1020C0004F467A50C4225200904680444246873997
:1020D000994012688A460A43944642466146116016
:1020E000842249465F4652008F50022DC1D1020022
:1020F00055468D32FF3211680D431560B9E7200057
:102100004D30FF30E050AEE701204042B6E7C04618
:102110009421000800000000F8B5C046F8BC08BCD7
:102120009E467047F8B5C046F8BC08BC9E4670474E
:1021300002030405060708090A0B0C0D0E0F101008
:102140000102030405060708090A0B0C0D0E0F1007
:10215000FE0300080A040008160400082204000810
:102160002E0400083A04000846040008520400083F
:10217000B2050008E2050008FC0500082E0600086C
:1021800060060008000000000000000001020304D7
:082190000607080910000020F9
:08219800E91F0008E90000083E
:0421A000C100000872
:1021A4000100000000127A00040000000100000099
:1021B40000000000FC02002064030020CC03002087
:1021C400000000000000000000000000000000000B
:1021D40000000000000000000000000000000000FB
:1021E40000000000000000000000000000000000EB
:1021F40000000000000000000000000000000000DB
:1022040000000000000000000000000000000000CA
:1022140000000000000000000000000000000000BA
:1022240000000000000000000000000000000000AA
:10223400000000000000000000000000000000009A
:10224400000000000000000000000000000000008A
:102254000000000000000000010000000000000079
:102264000E33CDAB34126DE6ECDE05000B0000003E
:10227400000000000000000000000000000000005A
:10228400000000000000000000000000000000004A
:10229400000000000000000000000000000000003A
:1022A400000000000000000000000000000000002A
:0400000508000B29BB
:00000001FF
